{
  "_format": "hh-sol-artifact-1",
  "contractName": "SwapContract",
  "sourceName": "contracts/Swap.sol",
  "abi": [
    {
      "inputs": [],
      "stateMutability": "payable",
      "type": "constructor"
    },
    {
      "inputs": [
        {
          "internalType": "address",
          "name": "tokenSendAddress",
          "type": "address"
        },
        {
          "internalType": "address",
          "name": "tokenRecieveMesureAddress",
          "type": "address"
        }
      ],
      "name": "calculateValue",
      "outputs": [
        {
          "internalType": "uint256",
          "name": "value",
          "type": "uint256"
        }
      ],
      "stateMutability": "view",
      "type": "function"
    },
    {
      "inputs": [],
      "name": "deployerAddress",
      "outputs": [
        {
          "internalType": "address",
          "name": "",
          "type": "address"
        }
      ],
      "stateMutability": "view",
      "type": "function"
    },
    {
      "inputs": [
        {
          "internalType": "address",
          "name": "tokenAddress",
          "type": "address"
        },
        {
          "internalType": "uint256",
          "name": "amount",
          "type": "uint256"
        },
        {
          "internalType": "address",
          "name": "recipientAddress",
          "type": "address"
        }
      ],
      "name": "distributeToken",
      "outputs": [],
      "stateMutability": "nonpayable",
      "type": "function"
    },
    {
      "inputs": [
        {
          "internalType": "bytes32",
          "name": "symbol",
          "type": "bytes32"
        },
        {
          "internalType": "address",
          "name": "tokenAddress",
          "type": "address"
        }
      ],
      "name": "listUpTokenAddress",
      "outputs": [],
      "stateMutability": "nonpayable",
      "type": "function"
    },
    {
      "inputs": [
        {
          "internalType": "bytes32",
          "name": "symbol",
          "type": "bytes32"
        }
      ],
      "name": "returnTokenAddress",
      "outputs": [
        {
          "internalType": "address",
          "name": "tokenAddress",
          "type": "address"
        }
      ],
      "stateMutability": "view",
      "type": "function"
    },
    {
      "inputs": [
        {
          "internalType": "address",
          "name": "sendTokenAddress",
          "type": "address"
        },
        {
          "internalType": "address",
          "name": "measureTokenAddress",
          "type": "address"
        },
        {
          "internalType": "address",
          "name": "receiveTokenAddress",
          "type": "address"
        },
        {
          "internalType": "uint256",
          "name": "amount",
          "type": "uint256"
        },
        {
          "internalType": "address",
          "name": "recipientAddress",
          "type": "address"
        }
      ],
      "name": "swap",
      "outputs": [],
      "stateMutability": "payable",
      "type": "function"
    }
  ],
  "bytecode": "0x6080604052336000806101000a81548173ffffffffffffffffffffffffffffffffffffffff021916908373ffffffffffffffffffffffffffffffffffffffff160217905550610f0b806100536000396000f3fe6080604052600436106100555760003560e01c80631a190bbd1461005a578063677fdac814610097578063714a091d146100b35780637dfec926146100dc5780639fb27b4314610105578063efdee94f14610142575b600080fd5b34801561006657600080fd5b50610081600480360381019061007c91906109d3565b61016d565b60405161008e9190610c17565b60405180910390f35b6100b160048036038101906100ac91906108e4565b6101aa565b005b3480156100bf57600080fd5b506100da60048036038101906100d5919061095b565b6104d7565b005b3480156100e857600080fd5b5061010360048036038101906100fe91906109fc565b6105fe565b005b34801561011157600080fd5b5061012c600480360381019061012791906108a8565b6106e2565b6040516101399190610d12565b60405180910390f35b34801561014e57600080fd5b5061015761081b565b6040516101649190610c17565b60405180910390f35b60006001600083815260200190815260200160002060009054906101000a900473ffffffffffffffffffffffffffffffffffffffff169050919050565b6000859050600084905060006101c088886106e2565b905060006101ce87896106e2565b90506000670de0b6b3a764000083886101e79190610d6f565b6101f19190610d3e565b90506000670de0b6b3a7640000838961020a9190610d6f565b6102149190610d3e565b9050818673ffffffffffffffffffffffffffffffffffffffff166370a08231336040518263ffffffff1660e01b81526004016102509190610c17565b60206040518083038186803b15801561026857600080fd5b505afa15801561027c573d6000803e3d6000fd5b505050506040513d601f19601f820116820180604052508101906102a09190610a38565b10156102e1576040517f08c379a00000000000000000000000000000000000000000000000000000000081526004016102d890610cb2565b60405180910390fd5b808573ffffffffffffffffffffffffffffffffffffffff166370a08231306040518263ffffffff1660e01b815260040161031b9190610c17565b60206040518083038186803b15801561033357600080fd5b505afa158015610347573d6000803e3d6000fd5b505050506040513d601f19601f8201168201806040525081019061036b9190610a38565b10156103ac576040517f08c379a00000000000000000000000000000000000000000000000000000000081526004016103a390610cd2565b60405180910390fd5b8573ffffffffffffffffffffffffffffffffffffffff166323b872dd3330856040518463ffffffff1660e01b81526004016103e993929190610c32565b602060405180830381600087803b15801561040357600080fd5b505af1158015610417573d6000803e3d6000fd5b505050506040513d601f19601f8201168201806040525081019061043b91906109aa565b508473ffffffffffffffffffffffffffffffffffffffff1663a9059cbb88836040518363ffffffff1660e01b8152600401610477929190610c69565b602060405180830381600087803b15801561049157600080fd5b505af11580156104a5573d6000803e3d6000fd5b505050506040513d601f19601f820116820180604052508101906104c991906109aa565b505050505050505050505050565b60008054906101000a900473ffffffffffffffffffffffffffffffffffffffff1673ffffffffffffffffffffffffffffffffffffffff163373ffffffffffffffffffffffffffffffffffffffff1614610565576040517f08c379a000000000000000000000000000000000000000000000000000000000815260040161055c90610cf2565b60405180910390fd5b60008390508073ffffffffffffffffffffffffffffffffffffffff1663a9059cbb83856040518363ffffffff1660e01b81526004016105a5929190610c69565b602060405180830381600087803b1580156105bf57600080fd5b505af11580156105d3573d6000803e3d6000fd5b505050506040513d601f19601f820116820180604052508101906105f791906109aa565b5050505050565b60008054906101000a900473ffffffffffffffffffffffffffffffffffffffff1673ffffffffffffffffffffffffffffffffffffffff163373ffffffffffffffffffffffffffffffffffffffff161461068c576040517f08c379a000000000000000000000000000000000000000000000000000000000815260040161068390610c92565b60405180910390fd5b806001600084815260200190815260200160002060006101000a81548173ffffffffffffffffffffffffffffffffffffffff021916908373ffffffffffffffffffffffffffffffffffffffff1602179055505050565b60008173ffffffffffffffffffffffffffffffffffffffff166370a08231306040518263ffffffff1660e01b815260040161071d9190610c17565b60206040518083038186803b15801561073557600080fd5b505afa158015610749573d6000803e3d6000fd5b505050506040513d601f19601f8201168201806040525081019061076d9190610a38565b8373ffffffffffffffffffffffffffffffffffffffff166370a08231306040518263ffffffff1660e01b81526004016107a69190610c17565b60206040518083038186803b1580156107be57600080fd5b505afa1580156107d2573d6000803e3d6000fd5b505050506040513d601f19601f820116820180604052508101906107f69190610a38565b670de0b6b3a76400006108099190610d6f565b6108139190610d3e565b905092915050565b60008054906101000a900473ffffffffffffffffffffffffffffffffffffffff1681565b60008135905061084e81610e79565b92915050565b60008151905061086381610e90565b92915050565b60008135905061087881610ea7565b92915050565b60008135905061088d81610ebe565b92915050565b6000815190506108a281610ebe565b92915050565b600080604083850312156108bb57600080fd5b60006108c98582860161083f565b92505060206108da8582860161083f565b9150509250929050565b600080600080600060a086880312156108fc57600080fd5b600061090a8882890161083f565b955050602061091b8882890161083f565b945050604061092c8882890161083f565b935050606061093d8882890161087e565b925050608061094e8882890161083f565b9150509295509295909350565b60008060006060848603121561097057600080fd5b600061097e8682870161083f565b935050602061098f8682870161087e565b92505060406109a08682870161083f565b9150509250925092565b6000602082840312156109bc57600080fd5b60006109ca84828501610854565b91505092915050565b6000602082840312156109e557600080fd5b60006109f384828501610869565b91505092915050565b60008060408385031215610a0f57600080fd5b6000610a1d85828601610869565b9250506020610a2e8582860161083f565b9150509250929050565b600060208284031215610a4a57600080fd5b6000610a5884828501610893565b91505092915050565b610a6a81610dc9565b82525050565b6000610a7d601b83610d2d565b91507f546869732066756e6374696f6e206973206e6f74207075626c696300000000006000830152602082019050919050565b6000610abd603283610d2d565b91507f596f757220617373657420697320736d616c6c6572207468616e20616d6f756e60008301527f7420796f752077616e7420746f2073656e6400000000000000000000000000006020830152604082019050919050565b6000610b23605583610d2d565b91507f436f6e7472616374206173736574206f66207468652063757272656e6379207260008301527f6563697069656e742077616e7420697320736d616c6c6572207468616e20616d60208301527f6f756e7420796f752077616e7420746f2073656e6400000000000000000000006040830152606082019050919050565b6000610baf602883610d2d565b91507f416e796f6e6520627574206465706f7965722063616e2064697374726962757460008301527f6520746f6b656e210000000000000000000000000000000000000000000000006020830152604082019050919050565b610c1181610e11565b82525050565b6000602082019050610c2c6000830184610a61565b92915050565b6000606082019050610c476000830186610a61565b610c546020830185610a61565b610c616040830184610c08565b949350505050565b6000604082019050610c7e6000830185610a61565b610c8b6020830184610c08565b9392505050565b60006020820190508181036000830152610cab81610a70565b9050919050565b60006020820190508181036000830152610ccb81610ab0565b9050919050565b60006020820190508181036000830152610ceb81610b16565b9050919050565b60006020820190508181036000830152610d0b81610ba2565b9050919050565b6000602082019050610d276000830184610c08565b92915050565b600082825260208201905092915050565b6000610d4982610e11565b9150610d5483610e11565b925082610d6457610d63610e4a565b5b828204905092915050565b6000610d7a82610e11565b9150610d8583610e11565b9250817fffffffffffffffffffffffffffffffffffffffffffffffffffffffffffffffff0483118215151615610dbe57610dbd610e1b565b5b828202905092915050565b6000610dd482610df1565b9050919050565b60008115159050919050565b6000819050919050565b600073ffffffffffffffffffffffffffffffffffffffff82169050919050565b6000819050919050565b7f4e487b7100000000000000000000000000000000000000000000000000000000600052601160045260246000fd5b7f4e487b7100000000000000000000000000000000000000000000000000000000600052601260045260246000fd5b610e8281610dc9565b8114610e8d57600080fd5b50565b610e9981610ddb565b8114610ea457600080fd5b50565b610eb081610de7565b8114610ebb57600080fd5b50565b610ec781610e11565b8114610ed257600080fd5b5056fea2646970667358221220c30170e30c53267155defcd181cd24bf4c28714056b36b2278f7232b0c20aea864736f6c63430008000033",
  "linkReferences": {},
  "deployedLinkReferences": {}
}